{
  "_format": "hh-sol-artifact-1",
  "contractName": "ConditionalMint",
  "sourceName": "contracts/ConditionalMint.sol",
  "abi": [
    {
      "inputs": [],
      "stateMutability": "nonpayable",
      "type": "constructor"
    },
    {
      "inputs": [
        {
          "internalType": "address",
          "name": "sender",
          "type": "address"
        },
        {
          "internalType": "uint256",
          "name": "tokenId",
          "type": "uint256"
        },
        {
          "internalType": "address",
          "name": "owner",
          "type": "address"
        }
      ],
      "name": "ERC721IncorrectOwner",
      "type": "error"
    },
    {
      "inputs": [
        {
          "internalType": "address",
          "name": "operator",
          "type": "address"
        },
        {
          "internalType": "uint256",
          "name": "tokenId",
          "type": "uint256"
        }
      ],
      "name": "ERC721InsufficientApproval",
      "type": "error"
    },
    {
      "inputs": [
        {
          "internalType": "address",
          "name": "approver",
          "type": "address"
        }
      ],
      "name": "ERC721InvalidApprover",
      "type": "error"
    },
    {
      "inputs": [
        {
          "internalType": "address",
          "name": "operator",
          "type": "address"
        }
      ],
      "name": "ERC721InvalidOperator",
      "type": "error"
    },
    {
      "inputs": [
        {
          "internalType": "address",
          "name": "owner",
          "type": "address"
        }
      ],
      "name": "ERC721InvalidOwner",
      "type": "error"
    },
    {
      "inputs": [
        {
          "internalType": "address",
          "name": "receiver",
          "type": "address"
        }
      ],
      "name": "ERC721InvalidReceiver",
      "type": "error"
    },
    {
      "inputs": [
        {
          "internalType": "address",
          "name": "sender",
          "type": "address"
        }
      ],
      "name": "ERC721InvalidSender",
      "type": "error"
    },
    {
      "inputs": [
        {
          "internalType": "uint256",
          "name": "tokenId",
          "type": "uint256"
        }
      ],
      "name": "ERC721NonexistentToken",
      "type": "error"
    },
    {
      "inputs": [
        {
          "internalType": "address",
          "name": "owner",
          "type": "address"
        }
      ],
      "name": "OwnableInvalidOwner",
      "type": "error"
    },
    {
      "inputs": [
        {
          "internalType": "address",
          "name": "account",
          "type": "address"
        }
      ],
      "name": "OwnableUnauthorizedAccount",
      "type": "error"
    },
    {
      "anonymous": false,
      "inputs": [
        {
          "indexed": true,
          "internalType": "address",
          "name": "owner",
          "type": "address"
        },
        {
          "indexed": true,
          "internalType": "address",
          "name": "approved",
          "type": "address"
        },
        {
          "indexed": true,
          "internalType": "uint256",
          "name": "tokenId",
          "type": "uint256"
        }
      ],
      "name": "Approval",
      "type": "event"
    },
    {
      "anonymous": false,
      "inputs": [
        {
          "indexed": true,
          "internalType": "address",
          "name": "owner",
          "type": "address"
        },
        {
          "indexed": true,
          "internalType": "address",
          "name": "operator",
          "type": "address"
        },
        {
          "indexed": false,
          "internalType": "bool",
          "name": "approved",
          "type": "bool"
        }
      ],
      "name": "ApprovalForAll",
      "type": "event"
    },
    {
      "anonymous": false,
      "inputs": [
        {
          "indexed": false,
          "internalType": "uint256",
          "name": "_fromTokenId",
          "type": "uint256"
        },
        {
          "indexed": false,
          "internalType": "uint256",
          "name": "_toTokenId",
          "type": "uint256"
        }
      ],
      "name": "BatchMetadataUpdate",
      "type": "event"
    },
    {
      "anonymous": false,
      "inputs": [
        {
          "indexed": false,
          "internalType": "uint256",
          "name": "_tokenId",
          "type": "uint256"
        }
      ],
      "name": "MetadataUpdate",
      "type": "event"
    },
    {
      "anonymous": false,
      "inputs": [
        {
          "indexed": true,
          "internalType": "address",
          "name": "to",
          "type": "address"
        },
        {
          "indexed": false,
          "internalType": "uint256",
          "name": "tokenId",
          "type": "uint256"
        },
        {
          "indexed": false,
          "internalType": "bytes32",
          "name": "purchaseHash",
          "type": "bytes32"
        }
      ],
      "name": "Minted",
      "type": "event"
    },
    {
      "anonymous": false,
      "inputs": [
        {
          "indexed": true,
          "internalType": "address",
          "name": "previousOwner",
          "type": "address"
        },
        {
          "indexed": true,
          "internalType": "address",
          "name": "newOwner",
          "type": "address"
        }
      ],
      "name": "OwnershipTransferred",
      "type": "event"
    },
    {
      "anonymous": false,
      "inputs": [
        {
          "indexed": true,
          "internalType": "bytes32",
          "name": "txHash",
          "type": "bytes32"
        },
        {
          "indexed": false,
          "internalType": "address",
          "name": "buyer",
          "type": "address"
        },
        {
          "indexed": false,
          "internalType": "string",
          "name": "name",
          "type": "string"
        },
        {
          "indexed": false,
          "internalType": "string",
          "name": "imageURI",
          "type": "string"
        },
        {
          "indexed": false,
          "internalType": "uint256",
          "name": "value",
          "type": "uint256"
        }
      ],
      "name": "PurchaseInitiated",
      "type": "event"
    },
    {
      "anonymous": false,
      "inputs": [
        {
          "indexed": true,
          "internalType": "address",
          "name": "to",
          "type": "address"
        },
        {
          "indexed": false,
          "internalType": "uint256",
          "name": "amount",
          "type": "uint256"
        },
        {
          "indexed": false,
          "internalType": "bytes32",
          "name": "purchaseHash",
          "type": "bytes32"
        }
      ],
      "name": "Refunded",
      "type": "event"
    },
    {
      "anonymous": false,
      "inputs": [
        {
          "indexed": true,
          "internalType": "address",
          "name": "from",
          "type": "address"
        },
        {
          "indexed": true,
          "internalType": "address",
          "name": "to",
          "type": "address"
        },
        {
          "indexed": true,
          "internalType": "uint256",
          "name": "tokenId",
          "type": "uint256"
        }
      ],
      "name": "Transfer",
      "type": "event"
    },
    {
      "inputs": [
        {
          "internalType": "address",
          "name": "to",
          "type": "address"
        },
        {
          "internalType": "uint256",
          "name": "tokenId",
          "type": "uint256"
        }
      ],
      "name": "approve",
      "outputs": [],
      "stateMutability": "nonpayable",
      "type": "function"
    },
    {
      "inputs": [
        {
          "internalType": "address",
          "name": "owner",
          "type": "address"
        }
      ],
      "name": "balanceOf",
      "outputs": [
        {
          "internalType": "uint256",
          "name": "",
          "type": "uint256"
        }
      ],
      "stateMutability": "view",
      "type": "function"
    },
    {
      "inputs": [
        {
          "internalType": "string",
          "name": "_name",
          "type": "string"
        },
        {
          "internalType": "string",
          "name": "_imageURI",
          "type": "string"
        }
      ],
      "name": "buyItem",
      "outputs": [],
      "stateMutability": "payable",
      "type": "function"
    },
    {
      "inputs": [
        {
          "internalType": "uint256",
          "name": "tokenId",
          "type": "uint256"
        }
      ],
      "name": "getApproved",
      "outputs": [
        {
          "internalType": "address",
          "name": "",
          "type": "address"
        }
      ],
      "stateMutability": "view",
      "type": "function"
    },
    {
      "inputs": [
        {
          "internalType": "address",
          "name": "owner",
          "type": "address"
        },
        {
          "internalType": "address",
          "name": "operator",
          "type": "address"
        }
      ],
      "name": "isApprovedForAll",
      "outputs": [
        {
          "internalType": "bool",
          "name": "",
          "type": "bool"
        }
      ],
      "stateMutability": "view",
      "type": "function"
    },
    {
      "inputs": [],
      "name": "name",
      "outputs": [
        {
          "internalType": "string",
          "name": "",
          "type": "string"
        }
      ],
      "stateMutability": "view",
      "type": "function"
    },
    {
      "inputs": [],
      "name": "owner",
      "outputs": [
        {
          "internalType": "address",
          "name": "",
          "type": "address"
        }
      ],
      "stateMutability": "view",
      "type": "function"
    },
    {
      "inputs": [
        {
          "internalType": "uint256",
          "name": "tokenId",
          "type": "uint256"
        }
      ],
      "name": "ownerOf",
      "outputs": [
        {
          "internalType": "address",
          "name": "",
          "type": "address"
        }
      ],
      "stateMutability": "view",
      "type": "function"
    },
    {
      "inputs": [
        {
          "internalType": "bytes32",
          "name": "",
          "type": "bytes32"
        }
      ],
      "name": "pendingPurchases",
      "outputs": [
        {
          "internalType": "address",
          "name": "buyer",
          "type": "address"
        },
        {
          "internalType": "string",
          "name": "name",
          "type": "string"
        },
        {
          "internalType": "string",
          "name": "imageURI",
          "type": "string"
        },
        {
          "internalType": "uint256",
          "name": "value",
          "type": "uint256"
        }
      ],
      "stateMutability": "view",
      "type": "function"
    },
    {
      "inputs": [
        {
          "internalType": "address payable",
          "name": "_to",
          "type": "address"
        },
        {
          "internalType": "uint256",
          "name": "_amount",
          "type": "uint256"
        },
        {
          "internalType": "bytes32",
          "name": "_purchaseHash",
          "type": "bytes32"
        }
      ],
      "name": "refund",
      "outputs": [],
      "stateMutability": "nonpayable",
      "type": "function"
    },
    {
      "inputs": [],
      "name": "renounceOwnership",
      "outputs": [],
      "stateMutability": "nonpayable",
      "type": "function"
    },
    {
      "inputs": [
        {
          "internalType": "address",
          "name": "_to",
          "type": "address"
        },
        {
          "internalType": "string",
          "name": "_tokenURI",
          "type": "string"
        },
        {
          "internalType": "bytes32",
          "name": "_purchaseHash",
          "type": "bytes32"
        }
      ],
      "name": "safeMint",
      "outputs": [],
      "stateMutability": "nonpayable",
      "type": "function"
    },
    {
      "inputs": [
        {
          "internalType": "address",
          "name": "from",
          "type": "address"
        },
        {
          "internalType": "address",
          "name": "to",
          "type": "address"
        },
        {
          "internalType": "uint256",
          "name": "tokenId",
          "type": "uint256"
        }
      ],
      "name": "safeTransferFrom",
      "outputs": [],
      "stateMutability": "nonpayable",
      "type": "function"
    },
    {
      "inputs": [
        {
          "internalType": "address",
          "name": "from",
          "type": "address"
        },
        {
          "internalType": "address",
          "name": "to",
          "type": "address"
        },
        {
          "internalType": "uint256",
          "name": "tokenId",
          "type": "uint256"
        },
        {
          "internalType": "bytes",
          "name": "data",
          "type": "bytes"
        }
      ],
      "name": "safeTransferFrom",
      "outputs": [],
      "stateMutability": "nonpayable",
      "type": "function"
    },
    {
      "inputs": [
        {
          "internalType": "address",
          "name": "operator",
          "type": "address"
        },
        {
          "internalType": "bool",
          "name": "approved",
          "type": "bool"
        }
      ],
      "name": "setApprovalForAll",
      "outputs": [],
      "stateMutability": "nonpayable",
      "type": "function"
    },
    {
      "inputs": [
        {
          "internalType": "bytes4",
          "name": "interfaceId",
          "type": "bytes4"
        }
      ],
      "name": "supportsInterface",
      "outputs": [
        {
          "internalType": "bool",
          "name": "",
          "type": "bool"
        }
      ],
      "stateMutability": "view",
      "type": "function"
    },
    {
      "inputs": [],
      "name": "symbol",
      "outputs": [
        {
          "internalType": "string",
          "name": "",
          "type": "string"
        }
      ],
      "stateMutability": "view",
      "type": "function"
    },
    {
      "inputs": [
        {
          "internalType": "uint256",
          "name": "",
          "type": "uint256"
        }
      ],
      "name": "tokenIdToPurchaseHash",
      "outputs": [
        {
          "internalType": "bytes32",
          "name": "",
          "type": "bytes32"
        }
      ],
      "stateMutability": "view",
      "type": "function"
    },
    {
      "inputs": [
        {
          "internalType": "uint256",
          "name": "tokenId",
          "type": "uint256"
        }
      ],
      "name": "tokenURI",
      "outputs": [
        {
          "internalType": "string",
          "name": "",
          "type": "string"
        }
      ],
      "stateMutability": "view",
      "type": "function"
    },
    {
      "inputs": [
        {
          "internalType": "address",
          "name": "from",
          "type": "address"
        },
        {
          "internalType": "address",
          "name": "to",
          "type": "address"
        },
        {
          "internalType": "uint256",
          "name": "tokenId",
          "type": "uint256"
        }
      ],
      "name": "transferFrom",
      "outputs": [],
      "stateMutability": "nonpayable",
      "type": "function"
    },
    {
      "inputs": [
        {
          "internalType": "address",
          "name": "newOwner",
          "type": "address"
        }
      ],
      "name": "transferOwnership",
      "outputs": [],
      "stateMutability": "nonpayable",
      "type": "function"
    },
    {
      "stateMutability": "payable",
      "type": "receive"
    }
  ],
  "bytecode": "0x60806040523480156200001157600080fd5b50336040518060400160405280601481526020017f436f6e646974696f6e616c4d696e74546f6b656e0000000000000000000000008152506040518060400160405280600381526020017f434d540000000000000000000000000000000000000000000000000000000000815250816000908162000090919062000472565b508060019081620000a2919062000472565b505050600073ffffffffffffffffffffffffffffffffffffffff168173ffffffffffffffffffffffffffffffffffffffff16036200011a5760006040517f1e4fbdf70000000000000000000000000000000000000000000000000000000081526004016200011191906200059e565b60405180910390fd5b6200012b816200013260201b60201c565b50620005bb565b6000600760009054906101000a900473ffffffffffffffffffffffffffffffffffffffff16905081600760006101000a81548173ffffffffffffffffffffffffffffffffffffffff021916908373ffffffffffffffffffffffffffffffffffffffff1602179055508173ffffffffffffffffffffffffffffffffffffffff168173ffffffffffffffffffffffffffffffffffffffff167f8be0079c531659141344cd1fd0a4f28419497f9722a3daafe3b4186f6b6457e060405160405180910390a35050565b600081519050919050565b7f4e487b7100000000000000000000000000000000000000000000000000000000600052604160045260246000fd5b7f4e487b7100000000000000000000000000000000000000000000000000000000600052602260045260246000fd5b600060028204905060018216806200027a57607f821691505b60208210810362000290576200028f62000232565b5b50919050565b60008190508160005260206000209050919050565b60006020601f8301049050919050565b600082821b905092915050565b600060088302620002fa7fffffffffffffffffffffffffffffffffffffffffffffffffffffffffffffffff82620002bb565b620003068683620002bb565b95508019841693508086168417925050509392505050565b6000819050919050565b6000819050919050565b6000620003536200034d62000347846200031e565b62000328565b6200031e565b9050919050565b6000819050919050565b6200036f8362000332565b620003876200037e826200035a565b848454620002c8565b825550505050565b600090565b6200039e6200038f565b620003ab81848462000364565b505050565b5b81811015620003d357620003c760008262000394565b600181019050620003b1565b5050565b601f8211156200042257620003ec8162000296565b620003f784620002ab565b8101602085101562000407578190505b6200041f6200041685620002ab565b830182620003b0565b50505b505050565b600082821c905092915050565b6000620004476000198460080262000427565b1980831691505092915050565b600062000462838362000434565b9150826002028217905092915050565b6200047d82620001f8565b67ffffffffffffffff81111562000499576200049862000203565b5b620004a5825462000261565b620004b2828285620003d7565b600060209050601f831160018114620004ea5760008415620004d5578287015190505b620004e1858262000454565b86555062000551565b601f198416620004fa8662000296565b60005b828110156200052457848901518255600182019150602085019450602081019050620004fd565b8683101562000544578489015162000540601f89168262000434565b8355505b6001600288020188555050505b505050505050565b600073ffffffffffffffffffffffffffffffffffffffff82169050919050565b6000620005868262000559565b9050919050565b620005988162000579565b82525050565b6000602082019050620005b560008301846200058d565b92915050565b6131ad80620005cb6000396000f3fe60806040526004361061012e5760003560e01c8063715018a6116100ab578063b4496f1a1161006f578063b4496f1a146103fc578063b88d4fde14610418578063c87b56dd14610441578063cdeb30bf1461047e578063e985e9c5146104bb578063f2fde38b146104f857610135565b8063715018a6146103265780638da5cb5b1461033d57806395d89b4114610368578063a22cb46514610393578063a7aa28c4146103bc57610135565b806323b872dd116100f257806323b872dd1461023157806342842e0e1461025a5780634e038a27146102835780636352211e146102ac57806370a08231146102e957610135565b806301ffc9a71461013a57806306fdde0314610177578063081812fc146101a2578063095ea7b3146101df5780630e66ac121461020857610135565b3661013557005b600080fd5b34801561014657600080fd5b50610161600480360381019061015c91906121cb565b610521565b60405161016e9190612213565b60405180910390f35b34801561018357600080fd5b5061018c610582565b60405161019991906122be565b60405180910390f35b3480156101ae57600080fd5b506101c960048036038101906101c49190612316565b610614565b6040516101d69190612384565b60405180910390f35b3480156101eb57600080fd5b50610206600480360381019061020191906123cb565b610630565b005b34801561021457600080fd5b5061022f600480360381019061022a919061247f565b610646565b005b34801561023d57600080fd5b50610258600480360381019061025391906124d2565b6107b5565b005b34801561026657600080fd5b50610281600480360381019061027c91906124d2565b6108b7565b005b34801561028f57600080fd5b506102aa60048036038101906102a5919061265a565b6108d7565b005b3480156102b857600080fd5b506102d360048036038101906102ce9190612316565b6108ef565b6040516102e09190612384565b60405180910390f35b3480156102f557600080fd5b50610310600480360381019061030b91906126c9565b610901565b60405161031d9190612705565b60405180910390f35b34801561033257600080fd5b5061033b6109bb565b005b34801561034957600080fd5b506103526109cf565b60405161035f9190612384565b60405180910390f35b34801561037457600080fd5b5061037d6109f9565b60405161038a91906122be565b60405180910390f35b34801561039f57600080fd5b506103ba60048036038101906103b5919061274c565b610a8b565b005b3480156103c857600080fd5b506103e360048036038101906103de919061278c565b610aa1565b6040516103f394939291906127b9565b60405180910390f35b6104166004803603810190610411919061280c565b610c01565b005b34801561042457600080fd5b5061043f600480360381019061043a9190612925565b610d86565b005b34801561044d57600080fd5b5061046860048036038101906104639190612316565b610dab565b60405161047591906122be565b60405180910390f35b34801561048a57600080fd5b506104a560048036038101906104a09190612316565b610ebe565b6040516104b291906129b7565b60405180910390f35b3480156104c757600080fd5b506104e260048036038101906104dd91906129d2565b610ed6565b6040516104ef9190612213565b60405180910390f35b34801561050457600080fd5b5061051f600480360381019061051a91906126c9565b610f6a565b005b6000634906490660e01b7bffffffffffffffffffffffffffffffffffffffffffffffffffffffff1916827bffffffffffffffffffffffffffffffffffffffffffffffffffffffff1916148061057b575061057a82610ff0565b5b9050919050565b60606000805461059190612a41565b80601f01602080910402602001604051908101604052809291908181526020018280546105bd90612a41565b801561060a5780601f106105df5761010080835404028352916020019161060a565b820191906000526020600020905b8154815290600101906020018083116105ed57829003601f168201915b5050505050905090565b600061061f826110d2565b506106298261115a565b9050919050565b610642828261063d611197565b61119f565b5050565b61064e6111b1565b60008373ffffffffffffffffffffffffffffffffffffffff168360405161067490612aa3565b60006040518083038185875af1925050503d80600081146106b1576040519150601f19603f3d011682016040523d82523d6000602084013e6106b6565b606091505b50509050806106fa576040517f08c379a00000000000000000000000000000000000000000000000000000000081526004016106f190612b04565b60405180910390fd5b8373ffffffffffffffffffffffffffffffffffffffff167fd38d0f28aa169b7bccdea6bc2e043c2b224d3031f69564e09c9287d84ca87ef38484604051610742929190612b24565b60405180910390a260096000838152602001908152602001600020600080820160006101000a81549073ffffffffffffffffffffffffffffffffffffffff02191690556001820160006107959190612102565b6002820160006107a59190612102565b6003820160009055505050505050565b600073ffffffffffffffffffffffffffffffffffffffff168273ffffffffffffffffffffffffffffffffffffffff16036108275760006040517f64a0ae9200000000000000000000000000000000000000000000000000000000815260040161081e9190612384565b60405180910390fd5b600061083b8383610836611197565b611238565b90508373ffffffffffffffffffffffffffffffffffffffff168173ffffffffffffffffffffffffffffffffffffffff16146108b1578382826040517f64283d7b0000000000000000000000000000000000000000000000000000000081526004016108a893929190612b4d565b60405180910390fd5b50505050565b6108d283838360405180602001604052806000815250610d86565b505050565b6108df6111b1565b6108ea838383611452565b505050565b60006108fa826110d2565b9050919050565b60008073ffffffffffffffffffffffffffffffffffffffff168273ffffffffffffffffffffffffffffffffffffffff16036109745760006040517f89c62b6400000000000000000000000000000000000000000000000000000000815260040161096b9190612384565b60405180910390fd5b600360008373ffffffffffffffffffffffffffffffffffffffff1673ffffffffffffffffffffffffffffffffffffffff168152602001908152602001600020549050919050565b6109c36111b1565b6109cd60006114f3565b565b6000600760009054906101000a900473ffffffffffffffffffffffffffffffffffffffff16905090565b606060018054610a0890612a41565b80601f0160208091040260200160405190810160405280929190818152602001828054610a3490612a41565b8015610a815780601f10610a5657610100808354040283529160200191610a81565b820191906000526020600020905b815481529060010190602001808311610a6457829003601f168201915b5050505050905090565b610a9d610a96611197565b83836115b9565b5050565b60096020528060005260406000206000915090508060000160009054906101000a900473ffffffffffffffffffffffffffffffffffffffff1690806001018054610aea90612a41565b80601f0160208091040260200160405190810160405280929190818152602001828054610b1690612a41565b8015610b635780601f10610b3857610100808354040283529160200191610b63565b820191906000526020600020905b815481529060010190602001808311610b4657829003601f168201915b505050505090806002018054610b7890612a41565b80601f0160208091040260200160405190810160405280929190818152602001828054610ba490612a41565b8015610bf15780601f10610bc657610100808354040283529160200191610bf1565b820191906000526020600020905b815481529060010190602001808311610bd457829003601f168201915b5050505050908060030154905084565b60003411610c44576040517f08c379a0000000000000000000000000000000000000000000000000000000008152600401610c3b90612bf6565b60405180910390fd5b6000334384843447604051602001610c6196959493929190612cbb565b60405160208183030381529060405280519060200120905060405180608001604052803373ffffffffffffffffffffffffffffffffffffffff168152602001848152602001838152602001348152506009600083815260200190815260200160002060008201518160000160006101000a81548173ffffffffffffffffffffffffffffffffffffffff021916908373ffffffffffffffffffffffffffffffffffffffff1602179055506020820151816001019081610d1f9190612ecf565b506040820151816002019081610d359190612ecf565b5060608201518160030155905050807f7bf7e0c684b1c707c5ae3775c71fdadccf4201740ade7997e6be4b088ff1c96b33858534604051610d7994939291906127b9565b60405180910390a2505050565b610d918484846107b5565b610da5610d9c611197565b85858585611728565b50505050565b6060610db6826110d2565b506000600660008481526020019081526020016000208054610dd790612a41565b80601f0160208091040260200160405190810160405280929190818152602001828054610e0390612a41565b8015610e505780601f10610e2557610100808354040283529160200191610e50565b820191906000526020600020905b815481529060010190602001808311610e3357829003601f168201915b505050505090506000610e616118d9565b90506000815103610e76578192505050610eb9565b600082511115610eab578082604051602001610e93929190612fa1565b60405160208183030381529060405292505050610eb9565b610eb4846118f0565b925050505b919050565b600a6020528060005260406000206000915090505481565b6000600560008473ffffffffffffffffffffffffffffffffffffffff1673ffffffffffffffffffffffffffffffffffffffff16815260200190815260200160002060008373ffffffffffffffffffffffffffffffffffffffff1673ffffffffffffffffffffffffffffffffffffffff16815260200190815260200160002060009054906101000a900460ff16905092915050565b610f726111b1565b600073ffffffffffffffffffffffffffffffffffffffff168173ffffffffffffffffffffffffffffffffffffffff1603610fe45760006040517f1e4fbdf7000000000000000000000000000000000000000000000000000000008152600401610fdb9190612384565b60405180910390fd5b610fed816114f3565b50565b60007f80ac58cd000000000000000000000000000000000000000000000000000000007bffffffffffffffffffffffffffffffffffffffffffffffffffffffff1916827bffffffffffffffffffffffffffffffffffffffffffffffffffffffff191614806110bb57507f5b5e139f000000000000000000000000000000000000000000000000000000007bffffffffffffffffffffffffffffffffffffffffffffffffffffffff1916827bffffffffffffffffffffffffffffffffffffffffffffffffffffffff1916145b806110cb57506110ca82611959565b5b9050919050565b6000806110de836119c3565b9050600073ffffffffffffffffffffffffffffffffffffffff168173ffffffffffffffffffffffffffffffffffffffff160361115157826040517f7e2732890000000000000000000000000000000000000000000000000000000081526004016111489190612705565b60405180910390fd5b80915050919050565b60006004600083815260200190815260200160002060009054906101000a900473ffffffffffffffffffffffffffffffffffffffff169050919050565b600033905090565b6111ac8383836001611a00565b505050565b6111b9611197565b73ffffffffffffffffffffffffffffffffffffffff166111d76109cf565b73ffffffffffffffffffffffffffffffffffffffff1614611236576111fa611197565b6040517f118cdaa700000000000000000000000000000000000000000000000000000000815260040161122d9190612384565b60405180910390fd5b565b600080611244846119c3565b9050600073ffffffffffffffffffffffffffffffffffffffff168373ffffffffffffffffffffffffffffffffffffffff161461128657611285818486611bc5565b5b600073ffffffffffffffffffffffffffffffffffffffff168173ffffffffffffffffffffffffffffffffffffffff1614611317576112c8600085600080611a00565b6001600360008373ffffffffffffffffffffffffffffffffffffffff1673ffffffffffffffffffffffffffffffffffffffff168152602001908152602001600020600082825403925050819055505b600073ffffffffffffffffffffffffffffffffffffffff168573ffffffffffffffffffffffffffffffffffffffff161461139a576001600360008773ffffffffffffffffffffffffffffffffffffffff1673ffffffffffffffffffffffffffffffffffffffff168152602001908152602001600020600082825401925050819055505b846002600086815260200190815260200160002060006101000a81548173ffffffffffffffffffffffffffffffffffffffff021916908373ffffffffffffffffffffffffffffffffffffffff160217905550838573ffffffffffffffffffffffffffffffffffffffff168273ffffffffffffffffffffffffffffffffffffffff167fddf252ad1be2c89b69c2b068fc378daa952ba7f163c4a11628f55a4df523b3ef60405160405180910390a4809150509392505050565b600060085490506008600081548092919061146c90612ff4565b919050555061147b8482611c89565b6114858184611ca7565b81600a6000838152602001908152602001600020819055508373ffffffffffffffffffffffffffffffffffffffff167fc263b302aec62d29105026245f19e16f8e0137066ccd4a8bd941f716bd4096bb82846040516114e5929190612b24565b60405180910390a250505050565b6000600760009054906101000a900473ffffffffffffffffffffffffffffffffffffffff16905081600760006101000a81548173ffffffffffffffffffffffffffffffffffffffff021916908373ffffffffffffffffffffffffffffffffffffffff1602179055508173ffffffffffffffffffffffffffffffffffffffff168173ffffffffffffffffffffffffffffffffffffffff167f8be0079c531659141344cd1fd0a4f28419497f9722a3daafe3b4186f6b6457e060405160405180910390a35050565b600073ffffffffffffffffffffffffffffffffffffffff168273ffffffffffffffffffffffffffffffffffffffff160361162a57816040517f5b08ba180000000000000000000000000000000000000000000000000000000081526004016116219190612384565b60405180910390fd5b80600560008573ffffffffffffffffffffffffffffffffffffffff1673ffffffffffffffffffffffffffffffffffffffff16815260200190815260200160002060008473ffffffffffffffffffffffffffffffffffffffff1673ffffffffffffffffffffffffffffffffffffffff16815260200190815260200160002060006101000a81548160ff0219169083151502179055508173ffffffffffffffffffffffffffffffffffffffff168373ffffffffffffffffffffffffffffffffffffffff167f17307eab39ab6107e8899845ad3d59bd9653f200f220920489ca2b5937696c318360405161171b9190612213565b60405180910390a3505050565b60008373ffffffffffffffffffffffffffffffffffffffff163b11156118d2578273ffffffffffffffffffffffffffffffffffffffff1663150b7a02868685856040518563ffffffff1660e01b81526004016117879493929190613091565b6020604051808303816000875af19250505080156117c357506040513d601f19601f820116820180604052508101906117c091906130f2565b60015b611847573d80600081146117f3576040519150601f19603f3d011682016040523d82523d6000602084013e6117f8565b606091505b50600081510361183f57836040517f64a0ae920000000000000000000000000000000000000000000000000000000081526004016118369190612384565b60405180910390fd5b805181602001fd5b63150b7a0260e01b7bffffffffffffffffffffffffffffffffffffffffffffffffffffffff1916817bffffffffffffffffffffffffffffffffffffffffffffffffffffffff1916146118d057836040517f64a0ae920000000000000000000000000000000000000000000000000000000081526004016118c79190612384565b60405180910390fd5b505b5050505050565b606060405180602001604052806000815250905090565b60606118fb826110d2565b5060006119066118d9565b905060008151116119265760405180602001604052806000815250611951565b8061193084611d03565b604051602001611941929190612fa1565b6040516020818303038152906040525b915050919050565b60007f01ffc9a7000000000000000000000000000000000000000000000000000000007bffffffffffffffffffffffffffffffffffffffffffffffffffffffff1916827bffffffffffffffffffffffffffffffffffffffffffffffffffffffff1916149050919050565b60006002600083815260200190815260200160002060009054906101000a900473ffffffffffffffffffffffffffffffffffffffff169050919050565b8080611a395750600073ffffffffffffffffffffffffffffffffffffffff168273ffffffffffffffffffffffffffffffffffffffff1614155b15611b6d576000611a49846110d2565b9050600073ffffffffffffffffffffffffffffffffffffffff168373ffffffffffffffffffffffffffffffffffffffff1614158015611ab457508273ffffffffffffffffffffffffffffffffffffffff168173ffffffffffffffffffffffffffffffffffffffff1614155b8015611ac75750611ac58184610ed6565b155b15611b0957826040517fa9fbf51f000000000000000000000000000000000000000000000000000000008152600401611b009190612384565b60405180910390fd5b8115611b6b57838573ffffffffffffffffffffffffffffffffffffffff168273ffffffffffffffffffffffffffffffffffffffff167f8c5be1e5ebec7d5bd14f71427d1e84f3dd0314c0f7b2291e5b200ac8c7c3b92560405160405180910390a45b505b836004600085815260200190815260200160002060006101000a81548173ffffffffffffffffffffffffffffffffffffffff021916908373ffffffffffffffffffffffffffffffffffffffff16021790555050505050565b611bd0838383611dd1565b611c8457600073ffffffffffffffffffffffffffffffffffffffff168373ffffffffffffffffffffffffffffffffffffffff1603611c4557806040517f7e273289000000000000000000000000000000000000000000000000000000008152600401611c3c9190612705565b60405180910390fd5b81816040517f177e802f000000000000000000000000000000000000000000000000000000008152600401611c7b92919061311f565b60405180910390fd5b505050565b611ca3828260405180602001604052806000815250611e92565b5050565b80600660008481526020019081526020016000209081611cc79190612ecf565b507ff8e1a15aba9398e019f0b49df1a4fde98ee17ae345cb5f6b5e2c27f5033e8ce782604051611cf79190612705565b60405180910390a15050565b606060006001611d1284611eb6565b01905060008167ffffffffffffffff811115611d3157611d3061252f565b5b6040519080825280601f01601f191660200182016040528015611d635781602001600182028036833780820191505090505b509050600082602001820190505b600115611dc6578080600190039150507f3031323334353637383961626364656600000000000000000000000000000000600a86061a8153600a8581611dba57611db9613148565b5b04945060008503611d71575b819350505050919050565b60008073ffffffffffffffffffffffffffffffffffffffff168373ffffffffffffffffffffffffffffffffffffffff1614158015611e8957508273ffffffffffffffffffffffffffffffffffffffff168473ffffffffffffffffffffffffffffffffffffffff161480611e4a5750611e498484610ed6565b5b80611e8857508273ffffffffffffffffffffffffffffffffffffffff16611e708361115a565b73ffffffffffffffffffffffffffffffffffffffff16145b5b90509392505050565b611e9c8383612009565b611eb1611ea7611197565b6000858585611728565b505050565b600080600090507a184f03e93ff9f4daa797ed6e38ed64bf6a1f0100000000000000008310611f14577a184f03e93ff9f4daa797ed6e38ed64bf6a1f0100000000000000008381611f0a57611f09613148565b5b0492506040810190505b6d04ee2d6d415b85acef81000000008310611f51576d04ee2d6d415b85acef81000000008381611f4757611f46613148565b5b0492506020810190505b662386f26fc100008310611f8057662386f26fc100008381611f7657611f75613148565b5b0492506010810190505b6305f5e1008310611fa9576305f5e1008381611f9f57611f9e613148565b5b0492506008810190505b6127108310611fce576127108381611fc457611fc3613148565b5b0492506004810190505b60648310611ff15760648381611fe757611fe6613148565b5b0492506002810190505b600a8310612000576001810190505b80915050919050565b600073ffffffffffffffffffffffffffffffffffffffff168273ffffffffffffffffffffffffffffffffffffffff160361207b5760006040517f64a0ae920000000000000000000000000000000000000000000000000000000081526004016120729190612384565b60405180910390fd5b600061208983836000611238565b9050600073ffffffffffffffffffffffffffffffffffffffff168173ffffffffffffffffffffffffffffffffffffffff16146120fd5760006040517f73c6ac6e0000000000000000000000000000000000000000000000000000000081526004016120f49190612384565b60405180910390fd5b505050565b50805461210e90612a41565b6000825580601f10612120575061213f565b601f01602090049060005260206000209081019061213e9190612142565b5b50565b5b8082111561215b576000816000905550600101612143565b5090565b6000604051905090565b600080fd5b600080fd5b60007fffffffff0000000000000000000000000000000000000000000000000000000082169050919050565b6121a881612173565b81146121b357600080fd5b50565b6000813590506121c58161219f565b92915050565b6000602082840312156121e1576121e0612169565b5b60006121ef848285016121b6565b91505092915050565b60008115159050919050565b61220d816121f8565b82525050565b60006020820190506122286000830184612204565b92915050565b600081519050919050565b600082825260208201905092915050565b60005b8381101561226857808201518184015260208101905061224d565b60008484015250505050565b6000601f19601f8301169050919050565b60006122908261222e565b61229a8185612239565b93506122aa81856020860161224a565b6122b381612274565b840191505092915050565b600060208201905081810360008301526122d88184612285565b905092915050565b6000819050919050565b6122f3816122e0565b81146122fe57600080fd5b50565b600081359050612310816122ea565b92915050565b60006020828403121561232c5761232b612169565b5b600061233a84828501612301565b91505092915050565b600073ffffffffffffffffffffffffffffffffffffffff82169050919050565b600061236e82612343565b9050919050565b61237e81612363565b82525050565b60006020820190506123996000830184612375565b92915050565b6123a881612363565b81146123b357600080fd5b50565b6000813590506123c58161239f565b92915050565b600080604083850312156123e2576123e1612169565b5b60006123f0858286016123b6565b925050602061240185828601612301565b9150509250929050565b600061241682612343565b9050919050565b6124268161240b565b811461243157600080fd5b50565b6000813590506124438161241d565b92915050565b6000819050919050565b61245c81612449565b811461246757600080fd5b50565b60008135905061247981612453565b92915050565b60008060006060848603121561249857612497612169565b5b60006124a686828701612434565b93505060206124b786828701612301565b92505060406124c88682870161246a565b9150509250925092565b6000806000606084860312156124eb576124ea612169565b5b60006124f9868287016123b6565b935050602061250a868287016123b6565b925050604061251b86828701612301565b9150509250925092565b600080fd5b600080fd5b7f4e487b7100000000000000000000000000000000000000000000000000000000600052604160045260246000fd5b61256782612274565b810181811067ffffffffffffffff821117156125865761258561252f565b5b80604052505050565b600061259961215f565b90506125a5828261255e565b919050565b600067ffffffffffffffff8211156125c5576125c461252f565b5b6125ce82612274565b9050602081019050919050565b82818337600083830152505050565b60006125fd6125f8846125aa565b61258f565b9050828152602081018484840111156126195761261861252a565b5b6126248482856125db565b509392505050565b600082601f83011261264157612640612525565b5b81356126518482602086016125ea565b91505092915050565b60008060006060848603121561267357612672612169565b5b6000612681868287016123b6565b935050602084013567ffffffffffffffff8111156126a2576126a161216e565b5b6126ae8682870161262c565b92505060406126bf8682870161246a565b9150509250925092565b6000602082840312156126df576126de612169565b5b60006126ed848285016123b6565b91505092915050565b6126ff816122e0565b82525050565b600060208201905061271a60008301846126f6565b92915050565b612729816121f8565b811461273457600080fd5b50565b60008135905061274681612720565b92915050565b6000806040838503121561276357612762612169565b5b6000612771858286016123b6565b925050602061278285828601612737565b9150509250929050565b6000602082840312156127a2576127a1612169565b5b60006127b08482850161246a565b91505092915050565b60006080820190506127ce6000830187612375565b81810360208301526127e08186612285565b905081810360408301526127f48185612285565b905061280360608301846126f6565b95945050505050565b6000806040838503121561282357612822612169565b5b600083013567ffffffffffffffff8111156128415761284061216e565b5b61284d8582860161262c565b925050602083013567ffffffffffffffff81111561286e5761286d61216e565b5b61287a8582860161262c565b9150509250929050565b600067ffffffffffffffff82111561289f5761289e61252f565b5b6128a882612274565b9050602081019050919050565b60006128c86128c384612884565b61258f565b9050828152602081018484840111156128e4576128e361252a565b5b6128ef8482856125db565b509392505050565b600082601f83011261290c5761290b612525565b5b813561291c8482602086016128b5565b91505092915050565b6000806000806080858703121561293f5761293e612169565b5b600061294d878288016123b6565b945050602061295e878288016123b6565b935050604061296f87828801612301565b925050606085013567ffffffffffffffff8111156129905761298f61216e565b5b61299c878288016128f7565b91505092959194509250565b6129b181612449565b82525050565b60006020820190506129cc60008301846129a8565b92915050565b600080604083850312156129e9576129e8612169565b5b60006129f7858286016123b6565b9250506020612a08858286016123b6565b9150509250929050565b7f4e487b7100000000000000000000000000000000000000000000000000000000600052602260045260246000fd5b60006002820490506001821680612a5957607f821691505b602082108103612a6c57612a6b612a12565b5b50919050565b600081905092915050565b50565b6000612a8d600083612a72565b9150612a9882612a7d565b600082019050919050565b6000612aae82612a80565b9150819050919050565b7f455448207472616e73666572206661696c656400000000000000000000000000600082015250565b6000612aee601383612239565b9150612af982612ab8565b602082019050919050565b60006020820190508181036000830152612b1d81612ae1565b9050919050565b6000604082019050612b3960008301856126f6565b612b4660208301846129a8565b9392505050565b6000606082019050612b626000830186612375565b612b6f60208301856126f6565b612b7c6040830184612375565b949350505050565b7f4554482076616c7565206d7573742062652067726561746572207468616e207a60008201527f65726f0000000000000000000000000000000000000000000000000000000000602082015250565b6000612be0602383612239565b9150612beb82612b84565b604082019050919050565b60006020820190508181036000830152612c0f81612bd3565b9050919050565b60008160601b9050919050565b6000612c2e82612c16565b9050919050565b6000612c4082612c23565b9050919050565b612c58612c5382612363565b612c35565b82525050565b6000819050919050565b612c79612c74826122e0565b612c5e565b82525050565b600081905092915050565b6000612c958261222e565b612c9f8185612c7f565b9350612caf81856020860161224a565b80840191505092915050565b6000612cc78289612c47565b601482019150612cd78288612c68565b602082019150612ce78287612c8a565b9150612cf38286612c8a565b9150612cff8285612c68565b602082019150612d0f8284612c68565b602082019150819050979650505050505050565b60008190508160005260206000209050919050565b60006020601f8301049050919050565b600082821b905092915050565b600060088302612d857fffffffffffffffffffffffffffffffffffffffffffffffffffffffffffffffff82612d48565b612d8f8683612d48565b95508019841693508086168417925050509392505050565b6000819050919050565b6000612dcc612dc7612dc2846122e0565b612da7565b6122e0565b9050919050565b6000819050919050565b612de683612db1565b612dfa612df282612dd3565b848454612d55565b825550505050565b600090565b612e0f612e02565b612e1a818484612ddd565b505050565b5b81811015612e3e57612e33600082612e07565b600181019050612e20565b5050565b601f821115612e8357612e5481612d23565b612e5d84612d38565b81016020851015612e6c578190505b612e80612e7885612d38565b830182612e1f565b50505b505050565b600082821c905092915050565b6000612ea660001984600802612e88565b1980831691505092915050565b6000612ebf8383612e95565b9150826002028217905092915050565b612ed88261222e565b67ffffffffffffffff811115612ef157612ef061252f565b5b612efb8254612a41565b612f06828285612e42565b600060209050601f831160018114612f395760008415612f27578287015190505b612f318582612eb3565b865550612f99565b601f198416612f4786612d23565b60005b82811015612f6f57848901518255600182019150602085019450602081019050612f4a565b86831015612f8c5784890151612f88601f891682612e95565b8355505b6001600288020188555050505b505050505050565b6000612fad8285612c8a565b9150612fb98284612c8a565b91508190509392505050565b7f4e487b7100000000000000000000000000000000000000000000000000000000600052601160045260246000fd5b6000612fff826122e0565b91507fffffffffffffffffffffffffffffffffffffffffffffffffffffffffffffffff820361303157613030612fc5565b5b600182019050919050565b600081519050919050565b600082825260208201905092915050565b60006130638261303c565b61306d8185613047565b935061307d81856020860161224a565b61308681612274565b840191505092915050565b60006080820190506130a66000830187612375565b6130b36020830186612375565b6130c060408301856126f6565b81810360608301526130d28184613058565b905095945050505050565b6000815190506130ec8161219f565b92915050565b60006020828403121561310857613107612169565b5b6000613116848285016130dd565b91505092915050565b60006040820190506131346000830185612375565b61314160208301846126f6565b9392505050565b7f4e487b7100000000000000000000000000000000000000000000000000000000600052601260045260246000fdfea2646970667358221220c8822dec398b25dd2c3b6aa4d0b055f61a40883410a8c1aa6050591ed3c8f03964736f6c63430008140033",
  "linkReferences": {},
  "deployedLinkReferences": {}
}